:020000040800F2
:1000000000500020E5010008000000000000000092
:10001000E1010008E1010008E10100080000000022
:100020000000000000000000000000001D1C00088F
:10003000E101000800000000FD1C0008411D00084F
:10004000E1010008E1010008E1010008E101000808
:10005000E1010008E1010008E1010008E1010008F8
:10006000E1010008E1010008E1010008E1010008E8
:10007000E1010008E1010008E1010008E1010008D8
:10008000E1010008E1010008E1010008E1010008C8
:10009000E1010008E1010008E1010008E1010008B8
:1000A000E1010008E1010008E1010008E1010008A8
:1000B000E1010008E1010008E1010008E101000898
:1000C000E1010008E1010008E1010008E101000888
:1000D000E1010008E1010008E1010008E101000878
:1000E000E1010008E1010008E1010008E101000868
:1000F000E1010008E1010008E1010008E101000858
:10010000E1010008E1010008E1010008E101000847
:10011000E1010008E1010008E1010008E101000837
:10012000E1010008E1010008E1010008E101000827
:1001300000000000000000000000000000000000BF
:1001400000000000000000000000000000000000AF
:10015000000000000000000000000000000000009F
:10016000000000000000000000000000000000008F
:10017000000000000000000000000000000000007F
:10018000000000000000000000000000000000006F
:10019000000000000000000000000000000000005F
:1001A000000000000000000000000000000000004F
:1001B000000000000000000000000000000000003F
:1001C000000000000000000000000000000000002F
:1001D0000000000000000000000000005FF8E0F1F7
:1001E000FEE700BF684620F007018D461448154918
:1001F00008B5814209D0144B984206D2C243134439
:1002000023F00302043204F0C3FA1048104B984262
:1002100007D2C243134423F003020432002104F046
:100220002DFB0C4B0C4A23F0684323F07F0343F073
:100230000063936000F01AF900F0D4F8FEE700BF05
:100240000000002028490008300000203000002075
:10025000801D00200000000000ED00E00E490F4866
:1002600008B5814209D00E4B984206D2C2431A44C7
:1002700022F00302043204F08BFA0A480A4B984237
:1002800009D2C2431A4422F0030204320021BDE81D
:10029000084004F0F3BA08BD284900080000002017
:1002A0003000002030000020801D002070B5642345
:1002B00082B0104E104D01930023306869464FF014
:1002C000FF3202F0E5F82B680C4C43F000532B6032
:1002D00020460B4904F04AF90A49044604F04EFA54
:1002E00002460028F4D1706801A9134601F06AFEA5
:1002F000E2E700BF3000002010100140000048423B
:100300004703803F17B7D1382DE9F04182B00DF196
:1003100008086423104F114E48F8083D3368104D0B
:1003200043F40053336028460E4904F01FF90E4988
:10033000054604F023FA04460028F4D1414622463B
:100340002346386801F03EFE2346786801A94FF045
:10035000FF3202F09DF8E1E730000020101001406C
:10036000000048424703803F17B7D13808B501F075
:1003700073FCFEE7704700BF08B501F06DFCFEE7B7
:1003800008B500F0BBFE012806D000F03FF90120BF
:1003900000F08EFD042800D008BDBFF34F8F054943
:1003A000054BCA6802F4E0621343CB60BFF34F8F82
:1003B000FEE700BF00ED00E00400FA0510B5064CB2
:1003C0002046064904F0D2F80549044604F0D6F95F
:1003D0000028F5D110BD00BF000048424703803F10
:1003E00017B7D13870B5102086B0012101F082FB1B
:1003F000022510234FF40052174805A98DF8173035
:10040000ADF814208DF8165000F0B4FF042100223E
:10041000284601F099FD114E042170600022284603
:1004200001F092FD0024306023460D4946220095DC
:100430000194029403940B4802F084FA234608497D
:1004400046220095019402940394074802F07AFA38
:1004500002F0D0FCFEE700BF001001403000002099
:1004600018490008AD020008090300083C4B30B4ED
:1004700018683C4940F0010018605D6882B029406E
:1004800059601968002021F0847121F480311960CD
:1004900019684FF41F0421F48021196059681A4625
:1004A00021F4FE0159609C6000900190196841F4AC
:1004B0008031196003E0009BB3F5A06F09D0136889
:1004C00003F400330193009B01330093019B002B45
:1004D000F1D0234B1B6813F4003318BF01230193A1
:1004E000019B012B06D0204B4FF000629A6002B0B6
:1004F00030BC70471D4A1A4B1068194640F0100076
:100500001060106820F003001060106840F00200D6
:1005100010605A685A605A685A605A6842F4806299
:100520005A605A6822F47C125A605A6842F4E812FF
:100530005A601A6842F080721A600B68084A9B0180
:10054000FBD51146536823F003035360536843F00F
:10055000020353604B6803F00C03082BFAD1C2E787
:10056000001002400000FFF800ED00E00020024013
:10057000114A536803F00C03082B0ED153685168DD
:10058000C3F38343C90303F1020310D552689203F6
:100590000DD40A4A02FB03F300E0084B064A08495F
:1005A0005268C2F303128A5CD3400B617047054A5C
:1005B00002FB03F3F2E700BF0010024000127A00D2
:1005C0000000002000093D00034A136803F03803CF
:1005D00018431060704700BF00200240044B1A68A7
:1005E00022F008021A601A6810431860704700BFB2
:1005F00000200240044B1A6822F010021A601A68A8
:1006000010431860704700BF00200240024B0349AE
:10061000034A59605A607047002002402301674531
:10062000AB89EFCD024B0349034A59605A607047CA
:100630000020024023016745AB89EFCD024A1369D0
:1006400043F080031361704700200240024A13699F
:1006500043F08003136170470020024010B4344C13
:10066000E368DB0723D4E368590703D502205DF86C
:10067000044B7047E368DA0636D42D4B1A6942F012
:1006800002021A6158611A6942F040021A61DA687E
:10069000D1072BD4DA68520742D5022041F6FD7308
:1006A000234A5DF8044B11690B40136170474FF406
:1006B0003022E3681E49DB0709D4CB685B070AD503
:1006C0000220012A08BF05205DF8044B7047013A5B
:1006D000EFD10520CBE7CB68DC0601D50320F0E79E
:1006E000012ACAD10520C2E70320C0E718464FF40B
:1006F0003021C3680E4ADC0707D4D3685B0708D5EE
:100700000220012908BF0520C8E70139F1D10520E1
:10071000C4E7D36813F0100F14BF03200420F0E7E0
:10072000DB6813F0100F14BF03200420B6E700BFEE
:10073000002002403248C368DB071ED4C368590753
:1007400001D502207047C368DA0636D42C48036905
:1007500043F004030361036943F040030361C3688A
:10076000D9072CD4C3685A0742D5022041F6FB733F
:10077000234A11690B40136170474FF43022C3685C
:100780001F49DB0708D4CB685B0709D5012A4FF066
:10079000020008BF05207047013AF0D105207047DC
:1007A000CB68D80605D5012A4FF0030008BF052005
:1007B0007047012ACAD105207047032070474FF4C3
:1007C0003021C3680E4ADB0707D4D3685B0708D51E
:1007D0000220012908BF0520C8E70139F1D1052011
:1007E000C4E7D36813F0100F14BF03200420F0E710
:1007F000C36813F0100F14BF03200420B6E700BF36
:10080000002002403248C368DB071ED4C368590782
:1008100001D502207047C368DA0636D42C48036934
:1008200043F004030361036943F040030361C368B9
:10083000D9072CD4C3685A0742D5022041F6FB736E
:10084000234A11690B40136170474FF43022C3688B
:100850001F49DB0708D4CB685B0709D5012A4FF095
:10086000020008BF05207047013AF0D1052070470B
:10087000CB68D80605D5012A4FF0030008BF052034
:100880007047012ACAD105207047032070474FF4F2
:100890003021C3680E4ADB0707D4D3685B0708D54D
:1008A0000220012908BF0520C8E70139F1D1052040
:1008B000C4E7D36813F0100F14BF03200420F0E73F
:1008C000C36813F0100F14BF03200420B6E700BF65
:1008D000002002404B4830B4C269C36812F0020FD6
:1008E0000CBFA5250025D90724D4C3685A0702D513
:1008F000022030BC7047C368DB0635D4414A424B06
:10090000424991609360136943F0200313611369B6
:1009100043F040031361D368D80727D4D36859073D
:1009200054D5022041F6EF7330BC364A11690B40B2
:10093000136170474FF43022C3683249DC0708D492
:10094000CB685B0708D50220012AD2D130BC052034
:100950007047013AF0D1F9E7CB68DC0601D50320F6
:10096000F2E7012AF2D0C9E70320C2E74FF43024AE
:10097000D3682449DB0706D4CB68580706D5022084
:10098000012CE3D0CEE7013CF2D1DFE7CB68DA06F9
:1009900001D50320F4E7012CD8D041F6DF731948C4
:1009A0001B4A01690B400361036943F010030361B3
:1009B0001580C368DB070ED4C3685D07B1D4C36874
:1009C00013F0100F14BF03200420ABE7D368DA063E
:1009D000E3D50320A6E74FF40051C368094ADC07BA
:1009E00006D4D3685B0706D502200129AED099E76B
:1009F0000139F2D1AAE7D36813F0100F14BF032016
:100A00000420F2E700200240AB89EFCD23016745C7
:100A100000F8FF1F30B4002382B0484D0193EB680B
:100A2000DB0720D4EB685C0703D5022002B030BCA2
:100A30007047EB68DA0633D4404D8BB22A6942F036
:100A400001022A610380EB68DB072BD4EB685C07AB
:100A500043D5022041F6FE73384A11690B401361F9
:100A600002B030BC70474FF40052EB68334CDB07E8
:100A700009D4E3685D070AD50220012A08BF0520D2
:100A800002B030BC7047013AEFD10520CEE7E368F1
:100A9000DC0601D50320F0E7012ACDD10520C5E70A
:100AA0000320C3E74FF40054EB68244ADB0707D464
:100AB000D3685D0708D50220012C08BF0520C9E7CF
:100AC000013CF1D10520C5E7D368DA0601D5032042
:100AD000F2E7012C04D10520BCE7EB68DA0612D45A
:100AE00002300190019B090C14481980C368DB0790
:100AF0000BD4C3685D07ACD4C36813F0100F14BFE8
:100B000003200420A6E70320A4E74FF40052C368A3
:100B10000A49DC0707D4CB685B0707D50220012A06
:100B200008BF052096E7013AF1D1CBE7CB6813F077
:100B3000100F14BF03200420F1E700BF0020024083
:100B400030B4304DEB68DB071DD4EB685C0702D591
:100B5000022030BC7047EB68DA0630D4294B1A69A2
:100B600042F001021A610180DA68D20729D4DA68FA
:100B7000550740D5022041F6FE7330BC214A116969
:100B80000B40136170474FF40052EB681D4CDB07BC
:100B900008D4E3685D0709D50220012A08BF0520B3
:100BA00030BC7047013AF0D10520D2E7E368DC069B
:100BB00001D50320F1E7012AD0D10520C9E70320A0
:100BC000C7E718464FF40051C3680E4ADC0707D444
:100BD000D3685B0708D50220012908BF0520CAE7B2
:100BE0000139F1D10520C6E7D36813F0100F14BF07
:100BF00003200420F0E7DB6813F0100F14BF03207C
:100C00000420B8E70020024030B4304DEB68DB0729
:100C100021D4EB685C0702D5022030BC7047EB683A
:100C2000DA0632D4294B2A4A2A4C89B29C609A604F
:100C30001A6942F010021A610180DA68D20726D4DC
:100C4000DA6855073BD5022041F6EF731F4A116958
:100C50000B401361E1E74FF40052EB681B4CDB07DC
:100C600008D4E3685D0708D50220012AD5D130BC3D
:100C700005207047013AF0D1F9E7E368DC0601D5B9
:100C80000320F2E7012AF2D0CCE70320C5E718469B
:100C90004FF40051C3680D4ADC0706D4D3685B07E4
:100CA00006D502200129E2D0CEE70139F2D1DEE7F4
:100CB000D36813F0100F14BF03200420F2E7DB68A1
:100CC00013F0100F14BF03200420BDE700200240E2
:100CD000AB89EFCD2301674530B4714CE368DD0784
:100CE0002BD4E368590702D5022030BC7047E36873
:100CF000DA0604D530BC03207047012A29D0C54349
:100D0000674B6849684A99609A601A69E9B242F08B
:100D10001002FF291A612AD0644A1181DA68D107CA
:100D200053D4DA6852071FD5022041F6EF7330BC66
:100D30005B4A11690B40136170474FF40052E3683E
:100D40005749DB0708D4CB685D0708D50220012A84
:100D5000CBD130BC05207047013AF0D1F9E7CB6820
:100D6000DC06CAD50320F2E7DB68DC0621D4C5F334
:100D70000723FF2B0CD04D4A9BB249485381C368CF
:100D8000DC076AD4C3685907CED4C368DA0610D426
:100D9000C5F30743FF2B13D0444A9BB240489381CD
:100DA000C368D9074BD4C3685A07BDD4C368DB06F0
:100DB00006D50320B9E7D368DA0667D40129C8D07D
:100DC000280EFF281DD10420AFE74FF40054DA6845
:100DD0003349D0070AD4CB685A070AD50220012C20
:100DE000B7D00428ECD005289FD1B2E7013CEED162
:100DF000AFE7CB68DB0601D50320F0E7012CA8D0D4
:100E0000B5E72A4B85B22648DD81C368DB0709D4E4
:100E1000C3685D0788D4C36813F0100F14BF0320A4
:100E2000042082E74FF40051C3681D4ADC0724D434
:100E3000D3685B072CD5022001298AD075E74FF4CF
:100E40000051C368164ADC071AD4D3685807B2D5D4
:100E5000022001293FF47DAFC5E74FF40051C3687C
:100E60000F4ADB070FD4D3685C07F1D4D368D806E8
:100E70000CD401293FF46DAF8AE70139D4D168E77A
:100E80000139DED165E70139E9D162E70320E0E706
:100E9000D36813F0100F14BF03200420CCE700BF69
:100EA0000020024023016745AB89EFCD00F8FF1F0A
:100EB00010B4514CE368DB0726D4E368590703D527
:100EC00002205DF8044B7047E368DA0637D44A4ADB
:100ED0004A4B4B4991609360136943F020031361BF
:100EE000136943F040031361D368DC0729D4D36846
:100EF00059075DD5022041F6DF733F4A5DF8044B88
:100F000011690B40136170474FF43022E3683A498E
:100F1000DB0709D4CB685C0709D50220012AD0D1B0
:100F200005205DF8044B7047013AEFD1F8E7CB6834
:100F3000DB0601D50320F1E7012AF1D0C7E7032042
:100F4000BFE74FF43024D3682B49DB0706D4CB68C6
:100F50005B0706D50220012CE2D0CCE7013CF2D1A0
:100F6000DEE7CB68D90601D50320F4E7012CD7D002
:100F700041F6DF72204B19690A401A611A6942F082
:100F800010021A611F4B80B9A5221A801A48C36843
:100F9000DA0712D4C3685B0726D5022041F6EF7347
:100FA000154A11690B4013618BE700221A80EDE7A7
:100FB000D368DA06DCD503209DE74FF43021C368FF
:100FC0000D4ADC0706D4D3685B0706D50220012949
:100FD000A6D0E3E70139F2D1A2E7D36813F0100FEE
:100FE00014BF03200420F2E7C36813F0100F14BFEE
:100FF00003200420D2E700BF00200240AB89EFCDE0
:101000002301674500F8FF1F70B4324B324E334C5A
:10101000B460B360F368DB0721D4F3685D0702D5E1
:10102000022070BC7047F368DC0632D42A4B40F0D3
:10103000F8001C6901432A480A4344F01001196171
:101040004280DA68D60726D4DA6855073BD50220F5
:1010500041F6EF73204A11690B401361E1E74FF449
:101060000054F3681C4DDB0708D4EB685E0708D515
:101070000220012CD5D170BC05207047013CF0D175
:10108000F9E7EB68DB0601D50320F2E7012CF2D08B
:10109000CCE70320C5E718464FF40051C3680E4A59
:1010A000DC0706D4D3685B0706D502200129E2D00D
:1010B000CEE70139F2D1DEE7D36813F0100F14BF89
:1010C00003200420F2E7DB6813F0100F14BF0320A5
:1010D0000420BDE7AB89EFCD002002402301674526
:1010E00000F8FF1F014BD8698008704700200240BC
:1010F000014B186A704700BF00200240024BD869BC
:10110000C0F34000704700BF00200240024B186847
:10111000C0F34010704700BF00200240044A13692A
:1011200019B923EA00001061704718431061704735
:10113000002002400128064B05D0DB68184214BF8E
:10114000012000207047D86900F00100704700BFFF
:1011500000200240014BD860704700BF00200240D1
:10116000084BDA68D1070BD4DA68520701D50220A0
:101170007047DB6813F0100F14BF03200420704782
:101180000120704700200240084BDA68D1070BD4D9
:10119000DA68520701D502207047DB6813F0100FA0
:1011A00014BF032004207047012070470020024034
:1011B000184A0346D168C90712D4D168490705D532
:1011C000002B4FF0020008BF05207047D26812F0D4
:1011D000100F14BF03200420002B08BF0520704708
:1011E00070B1D1680B48C90708D4C268520709D545
:1011F0000220013B002B08BF05207047013BF0D1C6
:1012000005207047C26812F0100F14BF032004209D
:10121000EFE700BF00200240184A0346D168C90723
:1012200012D4D168490705D5002B4FF0020008BF42
:1012300005207047D26812F0100F14BF032004205D
:10124000002B08BF0520704770B1D1680B48C90753
:1012500008D4C268520709D50220013B002B08BF01
:1012600005207047013BF0D105207047C26812F09D
:10127000100F14BF03200420EFE700BF002002403E
:1012800008B52F4B98421ED02E4B984225D02E4B9E
:1012900098422CD02D4B984233D02D4B98423AD0C7
:1012A0002C4B984241D02C4B984200D008BD4FF4B3
:1012B0008070012100F036FCBDE808404FF48070DA
:1012C000002100F02FBC0420012100F02BFCBDE820
:1012D00008400420002100F025BC0820012100F076
:1012E00021FCBDE808400820002100F01BBC1020B4
:1012F000012100F017FCBDE808401020002100F09B
:1013000011BC2020012100F00DFCBDE80840202088
:10131000002100F007BC4020012100F003FCBDE8E3
:1013200008404020002100F0FDBB8020012100F09A
:10133000F9FBBDE808408020002100F0F3BB00BFAE
:1013400000080140000C0140001001400014014061
:1013500000180140001C01400020014008B5012098
:10136000014600F0DFFBBDE808400120002100F04D
:10137000D9BB00BF30B4CD78EB0648BF8B7805F001
:101380000F0448BF1C430B8813F0FF0F33D0482DC8
:10139000026800F09980282D00F0FF80D90744BF33
:1013A00022F00F022243990744BF22F0F00242EAE2
:1013B0000412590744BF22F4706242EA042219075A
:1013C00044BF22F4704242EA0432D90644BF22F4F8
:1013D000702242EA0442990644BF22F4700242EAB3
:1013E0000452590644BF22F0706242EA04621906B0
:1013F00000F19F800260FF2B31D9482D426830D028
:10140000282D00F09980D90544BF22F00F02224315
:101410009D0544BF22F0F00242EA0412590544BF80
:1014200022F4706242EA04221D0544BF22F4704295
:1014300042EA0432D90444BF22F4702242EA044250
:101440009D0444BF22F4700242EA0452590444BF8E
:1014500022F0706242EA04621B0467D4426030BC2E
:10146000704703F4807189B2002940F0D68003F4FC
:10147000007189B2002940F0CA8003F4806189B20A
:10148000002940F0BE8003F4006189B2002940F0D9
:10149000B28003F4805189B2002940F0C98003F47E
:1014A000005189B2002940F0BD8003F4804189B227
:1014B000002940F0C38003F400439BB2002BCDD041
:1014C00064F31F720361C9E713F0010140F0328138
:1014D00003F0020189B2002940F0268103F00401E3
:1014E00089B2002940F01A8103F0080189B200296D
:1014F00040F00E8103F0100189B2002940F0028112
:1015000003F0200189B2002940F0F68003F0400189
:1015100089B2002940F0EA8003F0800189B20029F5
:101520003FF468AF64F31F72016163E764F31F72F5
:1015300094E764F31F725DE703F4807189B20029B8
:1015400040F0A68003F4007189B2002940F09A802F
:1015500003F4806189B2002940F08E8003F40061B9
:1015600089B2002940F0828003F4805189B20029B9
:1015700076D103F4005189B200296BD103F4804184
:1015800089B2002960D103F400439BB2002B3FF4E1
:1015900065AF64F31F72436160E713F0010140F02F
:1015A0009A8003F0020189B2002940F08E8003F096
:1015B000040189B2002940F0828003F0080189B259
:1015C000002976D103F0100189B200296BD103F014
:1015D000200189B2002960D103F0400189B20029BD
:1015E0007ED103F0800189B200293FF403AF64F398
:1015F0001F724161FEE622F4704242EA0432016148
:1016000047E722F4706242EA042201613BE722F0DC
:10161000F00242EA041201612FE722F00F02224396
:10162000016124E722F4700242EA045201613CE7BE
:1016300022F4702242EA0442016130E722F0706233
:1016400042EA0462016136E722F0706242EA046213
:10165000416198E722F4700242EA045241618DE749
:1016600022F4702242EA0442416182E722F470428D
:1016700042EA0432416177E722F4706242EA0422CE
:1016800041616BE722F0F00242EA041241615FE738
:1016900022F00F022243416154E722F4700242EA31
:1016A0000452416198E722F4702242EA0442416107
:1016B0008DE722F4704242EA0432416182E722F46B
:1016C000706242EA0422416177E722F0F00242EAC6
:1016D000041241616BE722F00F022243416160E78F
:1016E00022F0706242EA046241617AE722F070629D
:1016F00042EA046201610FE722F4700242EA0452F6
:10170000016103E722F4702242EA04420161F7E634
:1017100022F4704242EA04320161EBE622F4706284
:1017200042EA04220161DFE622F0F00242EA0412FA
:101730000161D3E622F00F0222430161C8E600BF37
:101740004FF6FF710222042301808270C37070473C
:101750008368194214BF012000207047806880B25E
:10176000704700BFC368194214BF012000207047B2
:10177000C06880B2704700BF016170474161704727
:101780000AB9416170470161704700BFC16070478D
:1017900041F4803383618161836183698369704728
:1017A0004FF68073054A10B414682340194341EA88
:1017B000001010605DF8044B704700BF000001404E
:1017C000014B1860704700BF1C0020420028194BD5
:1017D00000F44012B4BFDB695B68B2F5401F30B45F
:1017E00084B21ED0C20213D5C0F303450322AA401F
:1017F00023EA020343F0706319B1420D12019440D1
:1018000023430C4A0028B4BFD361536030BC7047F7
:10181000420D120104FA02F223EA020343F070635C
:10182000EAE7044D23F070636A6822F070626A6030
:10183000E2E700BF0000014001F0FC0303F1804338
:1018400003F5803301F0030110B489009C680F2276
:101850008A4024EA02029A609A68884002439A60A9
:101860005DF8044B704700BF014B1860704700BF24
:10187000DC0020420D4B0E4A19684FF41F0041F066
:101880000101196059680A405A601A6822F084728E
:1018900022F480321A601A6822F480221A605A6890
:1018A00022F4FE025A609860704700BF00100240A8
:1018B0000000FFF80C4BB0F5803F1A6822F480322C
:1018C0001A601A6822F480221A6008D0B0F5802FBE
:1018D00004D11A6842F4A0221A60704770471A684F
:1018E00042F480321A6070470010024082B0002338
:1018F0000A4A019302E0B3F5A06F08D0136813F40D
:10190000003F019B03F101030193019BF3D0034BC3
:101910001868C0F3404002B0704700BF001002409A
:10192000034A136823F0F80343EAC00010607047CD
:1019300000100240014B1860704700BF0000424297
:10194000034A536823F47C131943084350607047DB
:1019500000100240014B1860704700BF6000424217
:10196000034A536823F0030318435060704700BFD5
:1019700000100240024B586800F00C00704700BF96
:1019800000100240034A536823F0F00318435060EC
:10199000704700BF00100240034A536823F4E0631D
:1019A00018435060704700BF00100240034A53685C
:1019B00023F4605343EAC0005060704700100240B7
:1019C000044A137819B923EA0000107070471843CD
:1019D0001070704709100240014B1860704700BF3B
:1019E000D8004242034A536823F4404318435060EE
:1019F000704700BF00100240064B002201281A70F9
:101A00001A7005D0042802D105221A707047704759
:101A10001870704720100240014B1860704700BFDB
:101A200080044242024A136A18431062704700BFA2
:101A300000100240014B1860704700BF3C04424256
:101A4000224A10B4536803F00C03042B06D0082B71
:101A500026D01BB11E4A1346026001E01C4B0360F6
:101A60001A4A1C495468C4F303140C5DE3404360F4
:101A70005468C4F302240C5D23FA04F484605468AF
:101A8000C4F3C2240C5DE340C36052685DF8044BAC
:101A9000C2F381320A44127CB3FBF2F30361704754
:101AA00053685168C3F38343C90303F1020307D5A5
:101AB0005268920304D4064A02FB03F30360CFE7A3
:101AC000054A02FB03F30360CAE700BF00100240AF
:101AD00000127A001400002000093D00044A5369F6
:101AE00019B923EA000050617047184350617047EC
:101AF00000100240044A936919B923EA000090617A
:101B0000704718439061704700100240044AD3693F
:101B100019B923EA0000D06170471843D0617047BB
:101B200000100240044AD36819B923EA0000D060CB
:101B300070471843D060704700100240044A136990
:101B400019B923EA0000106170471843106170470B
:101B500000100240014B1860704700BF4004424231
:101B6000014B1860704700BF4C004242014B187097
:101B7000704700BF071002404309012B0BD0022B16
:101B8000094B0CBF1A6A5A6A00F01F0322FA03F0CD
:101B900000F001007047044B1A6800F01F0322FA9E
:101BA00003F000F00100704700100240024A536A3F
:101BB00043F080735362704700100240034B9B68F0
:101BC000184214BF01200020704700BF00100240DF
:101BD000014B1870704700BF0A1002409B48006814
:101BE000006880F3088862B661B6BFF34F8FBFF319
:101BF0006F8F00DF00BF00BF074B10B44FF0807441
:101C000040F8044C40F8081C40F8202C40F80C3CEC
:101C10005DF8044B40387047691C0008074B196891
:101C20000868B0E8F00F80F30988BFF36F8F4FF0BA
:101C3000000080F311884EF00D0E70471401002053
:101C4000044B4FF080521A60BFF34F8FBFF36F8F7A
:101C5000704700BF04ED00E0EFF311804FF050013A
:101C600081F311887047002008B5054B1B680133CC
:101C700002D0FFF7F1FFFEE7FFF7EEFFFEE700BF40
:101C80002800002008B5044B1B68B3F57A7F02D00A
:101C9000FFF7E2FFFEE708BD2800002008B5FFF7C8
:101CA000DBFF094A136801331360BFF34F8FBFF3A3
:101CB0006F8F012B00D008BD044B1B6813F0FF0F82
:101CC000F9D0FFF7C9FFFEE72800002004ED00E08F
:101CD00080F31188704700BF08B5074B186818B12A
:101CE0000138186018B108BDFFF7B6FFFEE7BDE880
:101CF0000840FFF7EDBF00BF28000020EFF3098088
:101D0000BFF36F8F0D4B1A6820E9F00F10602DE9BB
:101D100008404FF0500080F3118801F021FB4FF094
:101D2000000080F31188BDE8084019680868B0E831
:101D3000F00F80F30988BFF36F8F70471401002004
:101D400008B5FFF789FF01F025F918B1044B4FF0F2
:101D500080521A600020BDE80840FFF7B9BF00BFFD
:101D600004ED00E045F6BF500249034B072208602E
:101D70001A60704714E000E010E000E010B51F4B5F
:101D800082B01A78FF21D2B2019219701B781C48D8
:101D9000DBB28DF803309DF803309DF80310072265
:101DA00003F050030906037042600DD5062200E0DF
:101DB0000A469DF80330511E5B00DBB28DF80330FC
:101DC0009DF803301B06F3D401990C4C0D4BC9B29E
:101DD00021701968120241F470011960196802F447
:101DE000E06241F0704119604260FFF7BBFF064BB3
:101DF00000221A60FFF7F2FEFFF736FF00E400E072
:101E00003800002020ED00E02800002008B5EFF3A6
:101E100005820F2A08D80A4B0A495A680B6803F44E
:101E2000E063934209D808BD0749054B525C197815
:101E30009142F1D9FFF710FFFEE7FFF70DFFFEE734
:101E4000380000200CED00E0F0E300E008ED00E0D9
:101E500038B50446FFF722FFA36C002B14DD636A3C
:101E600093B104F1240507E0A36C013BA364A36CC8
:101E7000002B09DD636A3BB1284601F019FC0028FC
:101E8000F2D001F0C9FCEFE74FF0FF33A364FFF796
:101E900023FFFFF703FF636C002B14DD236993B16D
:101EA00004F1100507E0636C013B6364636C002B75
:101EB00009DD23693BB1284601F0FAFB0028F2D086
:101EC00001F0AAFCEFE74FF0FF336364BDE8384050
:101ED000FFF702BF70B5044690B30E46FFF7DEFE73
:101EE000226CE36B206803FB02F39A1A4FF0FF3574
:101EF000024403440021A163E26065646360A06062
:101F0000A5648EB923691BB9FFF7E6FE012070BDF9
:101F100004F1100001F0CCFB0128F5D1FFF790FE91
:101F2000FFF7DAFE012070BD04F1100002F01CFA88
:101F300004F1240002F018FAFFF7CEFE012070BD74
:101F4000FFF78AFEFEE700BF70B5054660B30E4698
:101F500069B301FB00F04D3002F0BEF9044668B3EE
:101F600000F14C032360E5632664FFF797FE226CC3
:101F7000E36B216803FB02F39A1A0A440B444FF007
:101F8000FF350020A063E2606360A16004F11000EF
:101F90006564A56402F0E8F904F1240002F0E4F9B4
:101FA000FFF79AFE204670BDFFF756FEFEE74C2075
:101FB00002F092F9044603460028D3D1FFF74CFE05
:101FC000FEE700BF2DE9F04385B0019204460028EA
:101FD00000F0F7800D461E46002900F04F81022ECA
:101FE00056D001F027FC18B9019B002B40F043812B
:101FF000FFF754FEA26BE36B4FF000099A424FF0DB
:10200000000779D3022E00F0EE80DDF80480B8F1ED
:10201000000F00F0E280B9F1000F00F0CE80FFF772
:102020005BFE00F097FFFFF739FE636C013308BFDA
:102030006764A36C013308BFA764FFF74DFE02A8D5
:1020400001A901F0B1FB002840F0BE80FFF726FE99
:10205000A26BE36B9A4267D0FFF73EFEFFF71EFECE
:10206000A36C002B1ADD636AC3B104F1240807E0F6
:10207000A36C013BA364A36C002B0FDD636A6BB1FF
:10208000404601F015FB0028F2D001F0C5FBEFE758
:10209000E36B012BA5D0FFF7DFFDFEE74FF0FF3329
:1020A000A364FFF719FEFFF7F9FD636C002B14DD45
:1020B000236993B104F1100807E0636C013B63648A
:1020C000636C002B09DD23693BB1404601F0F0FA57
:1020D0000028F2D001F0A0FBEFE74FF0FF3363647C
:1020E000FFF7FAFD00F0E4FFFFF7D8FDA26BE36B0A
:1020F0004FF001099A4285D2226C002A40F092806A
:102100002568002D40F08380606801F0F1FBA36B2F
:10211000626A01336560A363002A40F0A58000284D
:102120007AD0FFF78DFD77E004F11008FFF7D4FDBA
:102130004046019901F0C4F9FFF7B0FDA36C002BF4
:1021400014DD636A93B104F1240907E0A36C013B39
:10215000A364A36C002B09DD636A3BB1484601F020
:10216000A7FA0028F2D001F057FBEFE74FF0FF335A
:10217000A364FFF7B1FDFFF791FD636C002B06DC54
:102180000FE0636C013B6364636C002B09DD236922
:102190003BB1404601F08CFA0028F2D001F03CFB44
:1021A000EFE74FF0FF336364FFF796FD00F080FF29
:1021B000002899D1FFF744FD96E702A801F0E4FA60
:1021C0002DE7FFF749FDFEE72046FFF741FE00F04F
:1021D0006FFF002005B0BDE8F083FFF77DFD4046AE
:1021E00005B0BDE8F083226C002A89D02946E0685A
:1021F00002F0CEFA236CE2685B4221681A448A42FC
:10220000E2601ED262681344E360022E19D0A36B11
:10221000626A0133A3633ABBFFF75EFD012005B09C
:10222000BDE8F08329469EB9A06802F0B1FAA16822
:10223000236C62680B449342A360E8D32368A360D5
:10224000E5E7A36B002BE2D0A36B013BA363DEE7C2
:10225000E06802F09DFA236CE2685B4221681A4450
:102260008A42E260D1D2CDE704F1240001F020FAE5
:102270000128D1D155E7FFF7EFFCFEE7036C002BF7
:102280003FF4ADAEFFF7E8FCFEE700BF38B54C20E9
:1022900002F022F80446C8B100254FF0FF330122B6
:1022A0008563C26343644560836405608560C5607F
:1022B0000564103002F058F804F1240002F054F8DC
:1022C000204629462A462B46FFF77CFE204638BD8D
:1022D0002DE9F0410446002832D0884617461D46B5
:1022E000002900F08B80022D0FD0FFF78FFDFFF744
:1022F000B3FCA36BE26B06469A420CD8002530462D
:10230000FFF7E6FC2846BDE8F081E36B012B3DD0EA
:10231000FFF7A2FCFEE7226CAAB92568002D68D061
:10232000A36B0133A363A36C01331CD0A36C012501
:102330002B443046A364FFF7CBFC2846BDE8F08170
:10234000FFF78AFCFEE7002D46D14146A06802F067
:102350001FFAA168236C62680B449342A360DFD329
:102360002368A360DCE7636A0125002BC7D004F172
:10237000240001F09DF90028C1D0002FBFD03046C5
:102380003D60FFF7A5FC2846BDE8F081FFF73EFD64
:10239000FFF762FCA26BE36B06469A42226C19D3EC
:1023A000002ABAD04146E06802F0F2F9236CE268F4
:1023B0005B4221681A448A42E26004D26268134494
:1023C000E360022DACD1A36B002BA9D0A36B013B22
:1023D000A363A5E7002AA0D04146E06802F0D8F93F
:1023E000236CE2685B4221681A448A42E260E8D2C8
:1023F000E4E7606801F07CFA656091E7036C002B0C
:102400003FF471AFFFF728FCFEE700BFF8B50446C4
:1024100028B3036CD3B903680E463BB3FFF7F6FC51
:10242000FFF71AFCA26BE36B07469A4211D2A36B2B
:102430000133A363A36C013314D0A36C01252B4497
:10244000A3643846FFF744FC2846F8BDFFF704FCB8
:10245000FEE738460025FFF73BFC2846F8BDFFF7AE
:10246000FBFBFEE7636A3BB90125EAE74368002B03
:10247000D4D0FFF7F1FBFEE704F1240001F018F9D6
:102480000028F1D0002EEFD001253560D9E700BF3C
:102490002DE9F04385B001920446002800F0EB805E
:1024A0000D461F46002900F0178101F0C3F918B945
:1024B000019B002B40F00D81FFF7F0FBA36B4FF069
:1024C00000090026002B77D1DDF80480B8F1000F59
:1024D00000F0E580B9F1000F00F0C980FFF7FCFBC8
:1024E00000F038FDFFF7DAFB636C013308BF666468
:1024F000A36C013308BFA664FFF7EEFB02A801A995
:1025000001F052F9002840F0C180FFF7C7FBA36B30
:10251000002B69D1FFF7E0FB2368002B00F0AE80B1
:1025200004F124084046019900F0CAFFFFF7B6FB0A
:10253000A36C002B06DC0FE0A36C013BA364A36C2F
:10254000002B09DD636A3BB1404601F0B1F8002879
:10255000F2D001F061F9EFE74FF0FF33A364FFF72A
:10256000BBFBFFF79BFB636C002B14DD236993B16E
:1025700004F1100807E0636C013B6364636C002B9B
:1025800009DD23693BB1404601F092F80028F2D002
:1025900001F042F9EFE74FF0FF336364FFF79CFB74
:1025A00000F086FD08B9FFF74BFBFFF777FBA36B45
:1025B0004FF00109002B87D029462046E56800F03E
:1025C000ADF9002F71D1A36B2268013BA36312B94F
:1025D00001F0E6F960602369002B73D1FFF77CFB03
:1025E000012005B0BDE8F083FFF776FBFFF756FB4F
:1025F000A36C002B14DD636A93B104F1240807E097
:10260000A36C013BA364A36C002B09DD636A3BB19F
:10261000404601F04DF80028F2D001F0FDF8EFE758
:102620004FF0FF33A364FFF757FBFFF737FB636CF3
:10263000002B14DD236993B104F1100807E0636CEB
:10264000013B6364636C002B09DD23693BB14046A9
:1026500001F02EF80028F2D001F0DEF8EFE74FF09D
:10266000FF336364FFF738FB00F022FD9DE702A80B
:1026700001F08AF832E7FFF7EFFAFEE7FFF70EFB0B
:10268000606801F0E7F8FFF727FB49E72046FFF70E
:10269000DFFB00F00DFD002005B0BDE8F083FFF783
:1026A0001BFB404605B0BDE8F083636AE560002B84
:1026B00094D004F1240000F0FBFF00288ED0FFF737
:1026C000BFFA8BE704F1100000F0F2FF012885D17A
:1026D000F5E7FFF7C1FAFEE7036C002B3FF4E5AE28
:1026E000FFF7BAFAFEE700BF2DE9F041044678B1E2
:1026F0000F46904619B3FFF789FBFFF7ADFAA56BBC
:10270000064645B93046FFF7E3FA2846BDE8F081B2
:10271000FFF7A2FAFEE73946204600F0FFF8A36B68
:10272000013BA363636C01330FD0636C01252B4421
:1027300030466364FFF7CCFA2846BDE8F081036CAD
:10274000002BD8D0FFF788FAFEE7236933B930466B
:102750000125FFF7BDFA2846BDE8F08104F110001D
:1027600000F0A6FF0028F2D0B8F1000FEFD001254D
:102770003046C8F80050FFF7ABFA2846BDE8F081B4
:102780002DE9F041044698B10E46036C11B313B91C
:10279000FFF762FAFEE7FFF739FBFFF75DFAA56B7B
:1027A000074645B93846FFF793FA2846BDE8F08159
:1027B000FFF752FAFEE7D4F80C803146204600F0CD
:1027C000ADF801253846C4F80C80FFF781FA284699
:1027D000BDE8F081002BDBD0FFF73EFAFEE700BF3B
:1027E00010B5044630B1FFF759FAA46BFFF774FA3D
:1027F000204610BDFFF730FAFEE700BF38B50546AA
:1028000040B1FFF74BFAAC6BEB6B1C1BFFF764FAA4
:10281000204638BDFFF720FAFEE700BF08B1806B05
:10282000704708B5FFF718FAFEE700BF08B101F0DE
:1028300083BD08B5FFF710FAFEE700BF20B1806B3B
:10284000B0FA80F04009704708B5FFF705FAFEE7D7
:1028500030B1826BC06B101AB0FA80F0400970473B
:1028600008B5FFF7F9F9FEE770B504460E461546C0
:10287000FFF714FA636C013304BF00236364A36C95
:10288000013304BF0023A364FFF726FAA36B2BB91F
:1028900031462A4604F1240000F0BAFEFFF7FEF9A3
:1028A000A36C002B14DD636A93B104F1240507E0E7
:1028B000A36C013BA364A36C002B09DD636A3BB1ED
:1028C000284600F0F5FE0028F2D000F0A5FFEFE763
:1028D0004FF0FF33A364FFF7FFF9FFF7DFF9636CF5
:1028E000002B14DD236993B104F1100507E0636C3C
:1028F000013B6364636C002B09DD23693BB128460F
:1029000000F0D6FE0028F2D000F086FFEFE74FF08F
:10291000FF336364BDE87040FFF7DEB9026C034625
:102920007AB110B4C46840681444844228BF18685F
:10293000DC6028BFD8605DF8044B0846D96801F018
:1029400027BF70472DE9F84F0A9F9A46DDF82C8083
:102950000C9B8146002800F0A480042F02D9FFF7C9
:102960007BF9FEE70D4616469B46002B00F0B18032
:10297000502001F0B1FC0446002800F0A380B6000E
:102980003246C0F830B0A521584601F077FF2B78C9
:10299000226B84F83430043E2B78164426F0070668
:1029A0002BB36B7884F835306B7803B3AB7884F84D
:1029B0003630AB78DBB1EB7884F83730EB78B3B1F5
:1029C0002B7984F838302B798BB16B7984F83930D6
:1029D0006B7963B1AB7984F83A30AB793BB1EB7981
:1029E00084F83B30EB7913B12B7A84F83C30002526
:1029F00004F1040B5846E762276484F83D5065648F
:102A000001F0BEFC04F1180001F0BAFCC7F10503A7
:102A1000A564246184F84C506462304649465246AD
:102A2000A361FFF7E9F82060B8F1000F01D0C8F802
:102A300000402B4DFFF732F9D5F8D0300133C5F8FF
:102A4000D030D5F8D430A3B3D5F8D83033B9D5F8D1
:102A5000D430DB6A9F4228BFC5F8D440E06AD5F87D
:102A6000E020D5F8DC30012404FA00F600EB800009
:102A700032432344594605EB8000C5F8E020C5F8F1
:102A8000DC3001F081FCFFF727F9D5F8D820144B92
:102A900022B1D3F8D430DB6A9F4205D82046BDE886
:102AA000F88FFFF7D9F8FEE7FFF7CAF82046BDE830
:102AB000F88FC5F8D440D5F8D030012BCED101F035
:102AC000A3F9CBE7584601F037FC4FF0FF30BDE8E3
:102AD000F88F900001F000FC83460028F5D047E70E
:102AE00040000020F8B50646304CFFF7D7F8002E1E
:102AF00054D0371D384601F071FC38B9F16A2B48C3
:102B000001EB810354F82330002B3DD0B36A1BB195
:102B100006F1180001F062FC244D394605F1A000D1
:102B200001F032FCD4F8E420D4F8DC300132013377
:102B3000C4F8DC30C4F8E420FFF7CEF8D4F8D8307D
:102B40005BB3D5F8D4309E4218D0FFF7A7F8D5F87C
:102B5000C8301B6853B1D5F8C830DB68DB685B68E8
:102B6000C5F8EC30BDE8F840FFF7B6B84FF0FF33DA
:102B7000C5F8EC30BDE8F840FFF7AEB8D5F8E8305E
:102B80007BB1FFF769F8FEE7D0F8E03001228A4018
:102B900023EA0203C0F8E030B8E7F8BDD4F8D46007
:102BA000A7E7BDE8F840FFF74BB800BF40000020A2
:102BB00010B50446FFF772F824B1E46AFFF78CF809
:102BC000204610BD034BD3F8D440E46AFFF784F8E5
:102BD000204610BD4000002010B50446FFF716F94E
:102BE000FFF73AF824B1E46AFFF772F8204610BD07
:102BF000034BD3F8D440E46AFFF76AF8204610BDCF
:102C00004000002004292DE9F8430E4634D804463C
:102C1000FFF744F89CB3236C9E4222D02D4D24D95B
:102C2000D5F8D420944252D0D5F8D420D76ABE42E9
:102C300034BF00270127D4F82C8062694345A3697B
:102C400008BFE662002B08EB8803266405EB8303CC
:102C5000A4BFC6F10506A6619A42DFF8789018D0A5
:102C60008FB9BDE8F843FFF737B8D5F8D470E71B44
:102C7000B7FA87F77F09DEE7FEF7EEFFFEE7154BB1
:102C8000D3F8D440C7E7FEF7DBFFBDE8F843FFF712
:102C900023B8261D304601F0A1FB40B9D9F8E03039
:102CA000012202FA08F223EA0203C9F8E030E06ADE
:102CB000D5F8E0300122824000EB8000134331461A
:102CC00005EB8000C5F8E03001F05EFBC8E70027A7
:102CD000B1E700BF4000002070B5054680B11B4C35
:102CE000D4F8D43098420AD0FEF7D8FF6A6904F1CC
:102CF000B4039A4207D0BDE87040FEF7EDBF70BD47
:102D0000FEF7AAFFFEE7AB6A04F18C029342F2D011
:102D1000002BF0D12E1D304601F060FBE86AD4F89C
:102D2000E0300122824000EB80001343314604EB87
:102D30008000C4F8E03001F027FBD4F8D430EA6A10
:102D4000DB6A9A42D7D3FEF77BFFD4E7400000202E
:102D50002DE9F041064688B1FFF758F8FEF77CFFF1
:102D6000234D726905F1B4039A42074609D03846EB
:102D70000024FEF7ADFF2046BDE8F081FEF76CFFB2
:102D8000FEE7B46A05F18C008442F0D0002CEED14D
:102D9000D5F8E8300BBBD5F8D420F36AD46A06F135
:102DA0000408A342404634BF0024012401F016FB6E
:102DB000F06AD5F8E0300122824000EB8000134336
:102DC000414605EB8000C5F8E03001F0DDFA3846F9
:102DD000FEF77EFF2046BDE8F08106F1180101F004
:102DE000D3FA3846FEF774FF2046BDE8F08100BFF5
:102DF00040000020F8B54FF48C7001F06DFA0546E4
:102E0000002800F08280502001F066FA0446002875
:102E100000F088800563A52128464FF48C7201F0EC
:102E20002DFD236B00254C21452249264420271DDA
:102E300003F58A7384F8361084F8372084F83460F8
:102E400084F8350084F8385084F83D50E5622564F4
:102E50006564384623F0070601F092FA04F1180081
:102E600001F08EFA0523A5642A46A36184F84C502C
:102E70002F49304624616462FEF7BEFE2D4D20606E
:102E8000FEF70CFFD5F8D0300133C5F8D030D5F8B7
:102E9000D430002B3DD0D5F8D8302BB9D5F8D4306C
:102EA000DB6A0BB9C5F8D440E06AD5F8E020D5F864
:102EB000DC300124844000EB80002243013339469A
:102EC00005EB8000C5F8E020C5F8DC3001F05CFAC5
:102ED000FEF702FFD5F8D820164B0AB1D3F8D4304C
:102EE00000F0BAFF012804460ED1FEF7B5FE00231C
:102EF0004FF0FF32C5F8EC20C5F8D840C5F8F030E7
:102F0000BDE8F840FEF73ABF00B1F8BDFEF7A4FEF9
:102F1000FEE7C5F8D440D5F8D030012BC4D100F07D
:102F200073FFC1E72846BDE8F84001F005BA00BFCD
:102F3000ED3200084000002008B5FEF78DFE044B7E
:102F40000022C3F8D820BDE80840FEF79BBE00BFB2
:102F500040000020034AD2F8E8300133C2F8E830DC
:102F6000704700BF40000020014BD3F8F0007047CD
:102F70004000002008B5FEF749FF024BD3F8F000EF
:102F800008BD00BF40000020014BD3F8D0007047BF
:102F9000400000202DE9F047444CD4F8E830BBB99C
:102FA000D4F8F0300133C4F8F030D4F8F070EFB159
:102FB000D4F8EC309F4221D20025D4F8D430DB6A1B
:102FC00003EB830354F82330022B28BF012505E0CF
:102FD000D4F8F83000250133C4F8F830D4F8FC30C8
:102FE000002B18BF01252846BDE8F087D4F8C8306B
:102FF0001B68002B3BD0FEF72FFEFEE7DFF8ACA0EE
:1030000000254FF0010927E0DAF8C830DB68DE68F8
:10301000736806F104089F4226D3404601F0DEF9AA
:10302000B36A06F118000BB101F0D8F9F06AD4F8D0
:10303000E03009FA00F200EB80001343414604EB54
:103040008000C4F8E03001F09FF9D4F8D430F26A7F
:10305000DB6A9A4228BF0125D4F8C830134A1B689E
:10306000002BD1D14FF0FF33C2F8EC30A5E7D4F8F4
:10307000C830D4F8CC20C4F8C820C4F8CC30D4F878
:10308000F4300133C4F8F430D4F8C8301B683BB1D5
:10309000D4F8C830DB68DB685B68C4F8EC3087E7DD
:1030A0004FF0FF33C4F8EC3082E700BF400000204F
:1030B0002DE9F047344CD4F8E83013B9FEF7CCFDD5
:1030C000FEE7FEF7EBFDD4F8E830013BC4F8E8304A
:1030D000D4F8E830BBBBD4F8D030A3B32546A24621
:1030E000012722E0D5F89830DE6806F1040806F1E1
:1030F000180001F073F9404601F070F9F06AD5F854
:10310000E03007FA00F200EB80001343414605EB84
:103110008000C5F8E03001F037F9D5F8D430F26A14
:10312000DB6A9A4228BFCAF8FC90D4F88C204FF092
:103130000109154B002AD5D1D3F8F8204AB9D4F8A3
:10314000FC40012C19D00024FEF7C6FD2046BDE846
:10315000F087D3F8F830002BF1D00125FFF71AFFE4
:1031600008B1C4F8FC50D4F8F830013BC4F8F8308A
:10317000D4F8F830002BF1D1E1E7FEF761FDFEF75E
:10318000ABFD2046BDE8F0874000002070B5002868
:1031900052D000294DD02E4DD5F8E830002B45D126
:1031A000D5F8E82003680132C5F8E820D5F8F0200A
:1031B0005C189A422FD3A34201D8A2422DD2D5F84F
:1031C000D4300460181D224E01F008F950B9D6F829
:1031D000D4300122D96AD6F8E0308A4023EA0203CB
:1031E000C6F8E030D5F8D420D5F8F03054609C42D1
:1031F000174D24D3D5F8C800D5F8D410043101F008
:10320000D3F8D5F8EC309C4238BFC5F8EC40FFF756
:103210004FFF38B170BDA342CFD80460FFF748FF1D
:103220000028F7D1BDE87040FEF70ABDFEF714FD97
:10323000FEE7FEF711FDFEE7FEF70EFDFEE7D5F80F
:10324000CC00D5F8D410043101F0AEF8DFE700BFB0
:1032500040000020B8B338B5234C0346D4F8E8202A
:103260009ABBD4F8E8200132C4F8E820D4F8F05032
:10327000D4F8D4001D44043001F0B0F850B9D4F8AB
:10328000D4300122D96AD4F8E0308A4023EA02031C
:10329000C4F8E030D4F8D420D4F8F03055609D4222
:1032A000114C19D3D4F8C800D4F8D410043101F06B
:1032B0007BF8D4F8EC309D4238BFC4F8EC50FFF7EF
:1032C000F7FE28B138BDFEF7BBBCFEF7C5FCFEE734
:1032D000BDE83840FEF7B4BCD4F8CC00D4F8D41024
:1032E000043101F061F8EAE7400000201B4E80B590
:1032F00034463746B04609E0D4F8E830D4F8A05058
:103300000133C4F8E830FFF7D3FE65B9D6F8E430EE
:10331000002BF1D1D8F80030012B01D9FEF790FC39
:10332000FDF728F8F2E7FEF7B9FCD7F8AC30DD6816
:10333000281D01F053F8D7F8D030013BC7F8D03042
:10334000D7F8E430013BC7F8E430FEF7C5FC286B42
:1033500000F0F2FF284600F0EFFFD7E74000002022
:1033600010B5224CD4F8E830002B3BD1C4F8FC3027
:10337000D4F8D4301B6B1A68B2F1A53F22D0D4F830
:10338000D400D4F8D4103431FCF7F6FF1748D4F841
:10339000E030B3FA83F3DBB2C3F11F0303EB830323
:1033A0009B00E258E118D2B14A68083352680344DE
:1033B0009A424A6008BF5268D36808BF4A60C4F89E
:1033C000D43010BD5A68B2F1A53FD8D19A68B2F195
:1033D000A53FD4D1DB68B3F1A53FD0D1D6E7FEF746
:1033E0003BFCFEE70123C4F8FC3010BD4000002088
:1033F000F8B50546314EFEF751FC002D43D02F1D88
:10340000384600F0EBFF30B9E96A2C4801EB810344
:1034100056F82330ABB1AB6A1BB105F1180000F0D0
:10342000DDFF264C394604F1B40000F0ADFFFEF795
:1034300053FCD6F8D4309D42D4F8D83026D04BB9BE
:10344000F8BDD0F8E03001228A4023EA0203C0F838
:10345000E030E0E7FEF722FCD4F8C8301B683BB947
:103460004FF0FF33C4F8EC30BDE8F840FEF734BC51
:10347000D4F8C830DB68DB685B68C4F8EC30BDE8C2
:10348000F840FEF729BCD6F8D450B8E72BB1D4F8F1
:10349000E8305BB1FEF7E0FBFEE7D4F8D020D4F8CB
:1034A000B410914206D1C4F8D430F8BDBDE8F8405C
:1034B000FEF7C6BBBDE8F840FFF752BF4000002052
:1034C00038B5002843D0234C0D46D4F8D410183119
:1034D00000F06AFFD4F8D400043000F07FFF50B948
:1034E000D4F8D4300122D96AD4F8E0308A4023EAF3
:1034F0000203C4F8E0306B1C21D0D4F8F030D4F8CB
:10350000D410D4F8F0201D4495424D60114C0DD3D9
:10351000D4F8C800D4F8D410043100F045FFD4F832
:10352000EC309D4238BFC4F8EC5038BDD4F8CC0024
:10353000D4F8D410BDE83840043100F035BFD4F8D9
:10354000D41005480431BDE8384000F01DBFFEF737
:1035500083FBFEE740000020F400002070B5002847
:103560003ED0294CD4F8E83013B9FEF775FBFEE7DE
:10357000D4F8D4601546D4F8D42041F00043B361A8
:1035800002F1180100F000FFD4F8D400043000F07C
:1035900025FF50B9D4F8D4300121DA6AD4F8E030EC
:1035A000914023EA0103C4F8E0306B1C24D0D4F826
:1035B000F030D4F8D410D4F8F0201D4495424D607A
:1035C000114C10D3D4F8C800D4F8D410043100F052
:1035D000EBFED4F8EC309D4238BFC4F8EC5070BD1F
:1035E000FEF73AFBFEE7D4F8CC00D4F8D410BDE8DF
:1035F0007040043100F0D8BED4F8D4100348043130
:10360000BDE8704000F0C0BE40000020F400002083
:1036100070B5002844D0244C0D46D4F8D41016467A
:10362000183100F0B1FED4F8D400043000F0D6FE1A
:1036300050B9D4F8D4300121DA6AD4F8E03091409E
:1036400023EA0103C4F8E030012E21D0D4F8F03091
:10365000D4F8D410D4F8F0201D4495424D60124C9B
:103660000DD3D4F8C800D4F8D410043100F09CFE77
:10367000D4F8EC309D4238BFC4F8EC5070BDD4F89B
:10368000CC00D4F8D410BDE87040043100F08CBEFA
:10369000D4F8D41005480431BDE8704000F074BE81
:1036A000FEF7DAFAFEE700BF40000020F400002039
:1036B000C36870B5DD686DB305F11806174C304668
:1036C00000F08CFED4F8E830F3B92E1D304600F03F
:1036D00085FEE86AD4F8E0300122824000EB8000E9
:1036E0001343314604EB8000C4F8E03000F04CFE98
:1036F000D4F8D430E96ADA6A084B914286BF0120D7
:10370000C3F8FC00002070BD314604F18C0000F0CD
:103710003BFEEDE7FEF7A0FAFEE700BF4000002009
:10372000F8B5184DD5F8E8302BB3C66841F0004322
:1037300003601EB3371D00F051FE384600F04EFE08
:10374000F06A0124D5F8E03004FA00F200EB8000C2
:1037500005EB800013433946C5F8E03000F014FE55
:10376000D5F8D430F26ADB6A9A4286BF2046C5F8A3
:10377000FC400020F8BDFEF76FFAFEE7FEF76CFA9A
:10378000FEE700BF4000002008B538B1054BD3F874
:10379000F420D3F8F03080E80C0008BDFEF75CFAA6
:1037A000FEE700BF40000020F8B5044678B30E469F
:1037B00051B3FEF773FA32681648531CD0F8F05034
:1037C0001DD0D0F8F43021689942636801D09D4241
:1037D00010D2E91A8A420DD9D0F8F470521BD0F8F1
:1037E000F01013443360002527606160FEF774FA1F
:1037F0002846F8BD0125FEF76FFA2846F8BD0025DA
:10380000FEF76AFA2846F8BDFEF726FAFEE7FEF74D
:1038100023FAFEE740000020024B0122C3F8FC20FF
:10382000704700BF40000020014BD3F8D400704720
:1038300040000020064BD3F8D82032B1D3F8E8304E
:10384000002B0CBF0220002070470120704700BFF2
:1038500040000020002847D0F8B5244CC36AD4F8B3
:10386000D420D26A934214D28269002A05DBD4F8AC
:10387000D420D26AC2F10502826103EB830342695C
:1038800004EB83039A42194D04D0D5F8D430DB6A97
:10389000C362F8BD071D0646384600F09FFD70B9AB
:1038A000F36A03EB830255F8222042B9D5F8E020F1
:1038B000012101FA03F322EA0303C5F8E030D4F84A
:1038C000D4300125DB6AD4F8E0209D4003EB83006F
:1038D000F36245EA0203394604EB8000C4F8E030A5
:1038E000BDE8F84000F050BD704700BF4000002028
:1038F00048B1F8B5214D0446D5F8D430984204D0EB
:10390000FEF7AAF9FEE700207047436C43B1C16A95
:10391000026C013B9142436400D023B10020F8BD0A
:10392000FEF79AF9FEE7071D384600F057FD68B923
:10393000E06A00EB800355F823303BB9D5F8E0305E
:103940000122824023EA0203C5F8E030236CD5F857
:10395000E0200126C3F1050E06FA03FC03EB830009
:10396000E36205EB80004CEA02033946C4F818E034
:10397000C5F8E03000F008FD3046F8BD40000020FA
:10398000064BD3F8D410D3F8D420D3F8D4308869B8
:10399000DB6AC3F105039361704700BF400000205C
:1039A000054BD3F8D42022B1D3F8D4104A6C01329D
:1039B0004A64D3F8D400704740000020F8B5344C76
:1039C00006460D46FEF76AF9D4F8D4309B6C2BB945
:1039D000D4F8D430012783F84C70E5B9FEF77CF9B0
:1039E000FEF75CF9D4F8D430294A9D6C2DB16EB93C
:1039F000D2F8D420936C013B9364D4F8D4300022E5
:103A000083F84C20FEF768F92846F8BDD2F8D43088
:103A100000229A64F1E7D4F8D400043000F0DEFC10
:103A200048B9D4F8D420D4F8E030D26A974023EAD9
:103A30000707C4F8E0706B1C22D0D4F8F030D4F83B
:103A4000D410D4F8F0201D4495424D60104F0FD390
:103A5000D7F8C800D7F8D410043100F0A5FCD7F887
:103A6000EC309D4238BFC7F8EC50FEF7E9F8B5E7F7
:103A7000D7F8CC00D7F8D410043100F095FCF4E767
:103A8000D4F8D4100348043100F07EFCEDE700BF09
:103A900040000020F40000202DE9F8433D4C1F4673
:103AA00080460E461546FEF7F9F8D4F8D43093F860
:103AB0004C30022B0CD0D4F8D4104FF001098A6C92
:103AC00022EA08008864D4F8D43083F84C9007BB0D
:103AD000FEF702F9FEF7E2F81DB1D4F8D4309B6C82
:103AE0002B60D4F8D4302B4A93F84C30012B46D0BD
:103AF000D2F8D4300125996C21EA06019964D4F8F2
:103B0000D430002283F84C20FEF7E6F82846BDE8C2
:103B1000F883D4F8D400043000F060FC50B9D4F835
:103B2000D420D4F8E030D26A09FA02F923EA090372
:103B3000C4F8E0307B1C1BD0D4F8F030D4F8D4109B
:103B4000D4F8F0201F4497424F60DFF8488018D324
:103B5000D8F8C800D8F8D410043100F025FCD8F803
:103B6000EC309F4238BFC8F8EC70FEF769F8AFE759
:103B7000D4F8D4100848043100F006FCF5E700251D
:103B8000BDE7D8F8CC00D8F8D410043100F00CFC14
:103B9000EBE700BF40000020F4000020F8B5044629
:103BA000002846D01D460F461646FEF777F80DB1A1
:103BB000A36C2B6094F84C500222731EEDB284F873
:103BC0004C20032B04D8DFE803F0290A022DA76458
:103BD000012D0AD00125FEF77FF82846F8BDA36C19
:103BE000012D03F10103A364F4D1271D184E3846BB
:103BF00000F0F4FBE06AD6F8E03005FA00F200EBE2
:103C000080001343394606EB8000C6F8E03000F030
:103C1000BBFBA36A83B1FEF71FF8FEE7A36C1F434B
:103C2000A764D5E7022DD2D10025FEF755F8284626
:103C3000F8BDFEF711F8FEE7D6F8D430E26ADB6A89
:103C40009A42C7D9FDF7FCFFFEF746F82846F8BDB3
:103C5000400000202DE9F843DDF8208004460028CC
:103C600039D0894616461D46FEF7D0F8FDF7F4FF19
:103C700007460DB1A36C2B6094F84C500222731EC2
:103C8000EDB284F84C20032B05D8DFE803F01612C0
:103C9000021BC4F84890012D04D1A36AF3B1FDF7CB
:103CA000DBFFFEE738460124FEF712F82046BDE8A8
:103CB000F883A36C0133A364EDE7A36C49EA030323
:103CC000A364E8E7022DE4D138460024FEF700F8AB
:103CD0002046BDE8F883FDF7BFFFFEE7174ED6F894
:103CE000E83023BB04F10409484600F077FBE06AA2
:103CF000D6F8E030854000EB80001D43494606EBD6
:103D00008000C6F8E05000F03FFBD6F8D430E26AFD
:103D1000DB6A9A42C6D9B8F1000FC3D001243846F5
:103D2000C8F80040FDF7D4FF2046BDE8F88306F14F
:103D30008C0004F1180100F027FBE6E740000020AA
:103D40002DE9F843044600283AD00F46FEF75EF806
:103D5000FDF782FF022394F84C6084F84C30A36C8A
:103D6000F6B20133012E8046A36424D1A36A13B1B5
:103D7000FDF772FFFEE7174DD5F8E8301BBB04F1E5
:103D80000409484600F02AFBE06AD5F8E030864096
:103D900000EB80001E43494605EB8000C5F8E0605B
:103DA00000F0F2FAD5F8D430E26ADB6A9A4202D91E
:103DB0000FB101233B604046BDE8F843FDF788BFE3
:103DC000FDF74AFFFEE705F18C0004F1180100F051
:103DD000DBFAE7E74000002010B5044670B1FDF7BC
:103DE0005DFF94F84C30022B05BF002384F84C3063
:103DF00000240124FDF770FF204610BD014BD3F8CD
:103E0000D440ECE74000002070B5124E0024301979
:103E1000143400F0A9FA642C0E4DF8D105F16406B3
:103E2000304605F1780400F09FFA204600F09CFA35
:103E300005F18C0000F098FA05F1A00000F094FA6A
:103E400005F1B40000F090FAC5F8C860C5F8CC40A0
:103E500070BD00BF40000020F0B5184C85B0FDF7E4
:103E60001DFF27688FB1FDF737FF23681BB30023C1
:103E700003228DE80C000293039311481149462256
:103E8000FEF760FDB8B105B0F0BD261D304604F167
:103E9000180500F069FA284600F066FA3A4605204F
:103EA0000C21E6622563FEF74FF820600028DAD186
:103EB000FDF7D2FEFEE7FDF7CFFEFEE74001002052
:103EC000A53F0008204900082DE9F04F0E4683B0B9
:103ED000E9B18246282091461F4600F0FDF90446CC
:103EE00088B1194DFDF7DAFE2A689AB1FDF7F4FEA4
:103EF0000C9BC4F800A0A661C4F81C902762636202
:103F0000201D00F03DFA204603B0BDE8F08FFDF71C
:103F1000A3FEFEE705F10408404605F1180B0192E7
:103F200000F022FA584600F01FFA019A05200C21F1
:103F3000C5F82C80C5F830B0FEF706F828600028D8
:103F4000D4D1FDF789FEFEE74001002030B50546DB
:103F500085B010B3124C206870B10529019102920E
:103F600003950BDCFFF766FC02280ED000222068C8
:103F7000134601A9FEF726F805B030BD1A4601A97F
:103F80000023FEF7A5F905B030BD206801A9089A05
:103F90000023FEF717F805B030BDFDF75DFEFEE724
:103FA000400100202DE9F04FB04C89B02746A046D3
:103FB000E36A1D687DB1DB681D68FEF7CBFFFEF785
:103FC000D3FF7B6B0646984263D38542786340F209
:103FD000CB8000220DE0FEF7BDFFFEF7C5FF7B6B37
:103FE0000646984255D33B6B78631A68B2FA82F260
:103FF0005209A91B2068FEF737FCFFF759F8002883
:1040000074D000221346206802A9FEF741FA002866
:10401000CED0029B002BF4DB049E736913B1301DDC
:1040200000F0DCF9FEF7A0FF636B8246984225D3CF
:10403000029AC4F834A0092AE3D80123934013F468
:10404000047F40F0DA8013F0C70F40F0C6809B0673
:10405000D7D5304600F070F9D3E7DA68D2F80CB063
:1040600015680BF10409484600F0B8F9DBF8242084
:1040700058469047DBF81C20012A3AD0E36A1A68B8
:10408000002AEAD1D8F83020C8F83030C8F82C20FF
:10409000CEE74FF0000A0EE0DB68DD68D3F800B031
:1040A00005F10409484600F099F96B6A28469847DB
:1040B000EB69012B0ED0E36A1A68002AECD1D8F81C
:1040C0003020C8F83460C8F82C20C8F83030FEF72B
:1040D000EFFF96E7AB695B445B4519D96B60634BB7
:1040E0002D614946D86A00F05FF9E4E7FDF7A8FDC5
:1040F00087E7DBF818202A44AA421FD95B4BCBF88C
:104100000420CBF810B04946D86A00F04DF9B5E765
:10411000564B1B687BB1CDF814A0CDF818B00795AD
:10412000FFF788FB514900220868134605A9FDF7EF
:1041300049FF0028BFD1FDF78FFDFEE74B4B1A6802
:104140007AB1002305930695CDF81CB0FFF772FBFA
:10415000464900220868134605A9FDF733FF0028E9
:104160008CD1FDF779FDFEE7FEF7A2FFFB6ADB6865
:10417000D3F80CA00AF1040B584600F02FF9DAF836
:104180001C30012B04D0DAF824305046984738E729
:10419000DAF81830CAF810A0EA18B242CAF80420B7
:1041A00016D8761BB34238D83B6873B10026069503
:1041B000CDF81CA00596FFF73DFB32463346386824
:1041C00005A9FDF7FFFE0028DDD1FDF745FDFEE75F
:1041D0005946F86A00F0E8F8D5E7039BB169366103
:1041E000CA18524572601DD9534501D993421DD951
:1041F000311DE06A00F0D8F803E7039BB3615BB3BD
:10420000534453457360194B366106F1040194BF62
:10421000186BD86A00F0C8F8F3E65946386B00F01E
:10422000C3F8B0E7C3EB0A03994218D8736A304663
:104230009847F369012B7FF4E4AEB269039B002138
:104240001A44304600910B46FFF780FE00287FF4A9
:10425000D8AEFDF701FDFEE7FDF7FEFCFEE7034BE0
:10426000311D186B00F0A0F8CBE600BF4001002024
:1042700008B10068704708B5FDF7EEFCFEE700BF27
:1042800010B5044648B1FDF709FD6469003418BF54
:104290000124FDF721FD204610BDFDF7DDFCFEE702
:1042A00010B5044630B1FDF7F9FC246AFDF714FDA2
:1042B000204610BDFDF7D0FCFEE700BF38B5044630
:1042C00038B10D46FDF7EAFC2562BDE83840FDF740
:1042D00003BDFDF7C1FCFEE738B5044643071CBF2C
:1042E00020F007040834FEF735FE114B1D68C5B1F8
:1042F00041F6F7310F4AD2F80C3B1C448C4209D8E6
:10430000A34207D21D44C2F80C4BFEF7D1FE1DB1EB
:10431000284638BDFEF7CCFE0025FCF727F82846D6
:1043200038BD03F10C0525F007051D60E0E700BF6F
:10433000780100207012002018B108B5FDF78CFC40
:10434000FEE77047024B0022C3F80C2B704700BFFA
:1043500070120020034BD3F80C0BC0F5DF5018305F
:10436000704700BF7012002000F108034FF0FF31CA
:104370000022816080E80C00C3600361704700BFC9
:1043800000230361704700BF90E80C0010B49C68E4
:1043900001328C609C684B60616099605DF8044BF1
:1043A00008610260704700BF30B40D686B1C11D00B
:1043B00000F1080200E01A4653681C68A542FAD2D0
:1043C00004684B60013499608A6051600861046040
:1043D00030BC704702695368F2E700BF43688168E8
:1043E000026910B49960816854684B601368844214
:1043F00008BF5160013B002101615DF8044B184684
:10440000136070474FF0FF0C1CEAD0521EBF1CEA2D
:10441000D15392EA0C0F93EA0C0F6FD01A4480EA42
:10442000010C400218BF5FEA41211ED04FF000632B
:1044300043EA501043EA5111A0FB01310CF0004057
:10444000B1F5000F3EBF490041EAD3715B0040EA7D
:10445000010062F17F02FD2A1DD8B3F1004F40EB4D
:10446000C25008BF20F00100704790F0000F0CF020
:10447000004C08BF49024CEA502040EA51207F3AE4
:10448000C2BFD2F1FF0340EAC250704740F40000BF
:104490004FF00003013A5DDC12F1190FDCBF00F0B0
:1044A00000407047C2F10002410021FA02F1C2F15E
:1044B000200200FA02FC5FEA310040F1000053EAFA
:1044C0004C0308BF20EADC70704792F0000F00F048
:1044D000004C02BF400010F4000F013AF9D040EA4E
:1044E0000C0093F0000F01F0004C02BF490011F4E2
:1044F000000F013BF9D041EA0C018FE70CEAD153E0
:1045000092EA0C0F18BF93EA0C0F0AD030F0004C5F
:1045100018BF31F0004CD8D180EA010000F0004013
:10452000704790F0000F17BF90F0004F084691F0D1
:10453000000F91F0004F14D092EA0C0F01D142020B
:104540000FD193EA0C0F03D14B0218BF084608D1D4
:1045500080EA010000F0004040F0FE4040F400001E
:10456000704740F0FE4040F4400070474FF0FF0CB1
:104570001CEAD0521EBF1CEAD15392EA0C0F93EAF8
:104580000C0F69D0A2EB030280EA010C49024FEA4A
:10459000402037D04FF0805343EA111143EA101303
:1045A0000CF000408B4238BF5B0042F17D024FF4BB
:1045B000000C8B4224BF5B1A40EA0C00B3EB510F96
:1045C00024BFA3EB510340EA5C00B3EB910F24BF7F
:1045D000A3EB910340EA9C00B3EBD10F24BFA3EB04
:1045E000D10340EADC001B0118BF5FEA1C1CE0D1CC
:1045F000FD2A3FF650AF8B4240EBC25008BF20F07F
:10460000010070470CF0004C4CEA50207F32C2BFD2
:10461000D2F1FF0340EAC250704740F400004FF06F
:104620000003013A37E792F0000F00F0004C02BFA0
:10463000400010F4000F013AF9D040EA0C0093F06A
:10464000000F01F0004C02BF490011F4000F013BC4
:10465000F9D041EA0C0195E70CEAD15392EA0C0F2C
:1046600008D142027FF47DAF93EA0C0F7FF470AF64
:10467000084676E793EA0C0F04D14B023FF44CAFA7
:1046800008466EE730F0004C18BF31F0004CCAD13C
:1046900030F000427FF45CAF31F000437FF43CAF78
:1046A0005FE700BF4FF0FF3C06E000BF4FF0010C9A
:1046B00002E000BF4FF0010C4DF804CD4FEA40027C
:1046C0004FEA41037FEA226C18BF7FEA236C11D0C6
:1046D00001B052EA530C18BF90EA010F58BFB2EB79
:1046E000030088BFC81738BF6FEAE17018BF40F0F9
:1046F000010070477FEA226C02D15FEA402C05D1AD
:104700007FEA236CE4D15FEA412CE1D05DF8040B31
:10471000704700BF844608466146FFE70FB5FFF7C4
:10472000C9FF002848BF10F1000F0FBD4DF808ED7C
:10473000FFF7F4FF0CBF012000205DF808FB00BF6D
:104740004DF808EDFFF7EAFF34BF012000205DF8C7
:1047500008FB00BF4DF808EDFFF7E0FF94BF012014
:1047600000205DF808FB00BF4DF808EDFFF7D2FF11
:1047700094BF012000205DF808FB00BF4DF808ED54
:10478000FFF7C8FF34BF012000205DF808FB00BF21
:10479000844641EA000313F0030349D1403A23D38E
:1047A0000B6803604B6843608B688360CB68C360B1
:1047B0000B6903614B6943618B698361CB69C36199
:1047C0000B6A03624B6A43628B6A8362CB6AC36281
:1047D0000B6B03634B6B43638B6B8363CB6BC36369
:1047E00040304031403ADBD230320BD30B680360AB
:1047F0004B6843608B688360CB68C36010301031B6
:10480000103AF3D20C3205D351F8043B40F8043B84
:10481000043AF9D2043208D0D2071CBF11F8013B88
:1048200000F8013B01D30B8803806046704700BF4E
:10483000082A13D38B07B1D010F00303AED0C3F115
:104840000403D21ADB071CBF11F8013B00F8013B3F
:10485000A4D331F8023B20F8023B9FE7043AD9D3B6
:10486000013A11F8013B00F8013BF9D20B780370D3
:104870004B7843708B7883706046704770B48407C0
:1048800046D0541E002A41D0CDB2034602E0621E3B
:10489000E4B3144603F8015B9A07F8D1032C2ED930
:1048A000CDB245EA05250F2C45EA054519D926461E
:1048B00003F11002103E0F2E42F8105C42F80C5C1F
:1048C00042F8085C42F8045C02F11002F2D8A4F14C
:1048D000100222F00F0204F00F041032032C1344D4
:1048E0000DD91E462246043A032A46F8045BFAD83C
:1048F000221F22F003020432134404F003042CB1FB
:10490000C9B21C4403F8011BA342FBD170BC704721
:0849100014460346C2E700BF94
:10491800426C6B4C65640000546D722053766300E2
:104928000000000000000000010203040607080957
:1049380000A24A040000000001020304010203046B
:104948000607080902040608AAAAAAAA0000000085
:04000005080001E509
:00000001FF
